{
  "address": "0xa75Ad0a22e3c839FB81cB2199d2E01ccd9d52fa1",
  "abi": [
    {
      "anonymous": false,
      "inputs": [
        {
          "indexed": false,
          "internalType": "uint256",
          "name": "id",
          "type": "uint256"
        },
        {
          "indexed": false,
          "internalType": "address",
          "name": "agent",
          "type": "address"
        },
        {
          "indexed": false,
          "internalType": "string",
          "name": "result",
          "type": "string"
        }
      ],
      "name": "TaskCompleted",
      "type": "event"
    },
    {
      "anonymous": false,
      "inputs": [
        {
          "indexed": false,
          "internalType": "uint256",
          "name": "id",
          "type": "uint256"
        },
        {
          "indexed": false,
          "internalType": "string",
          "name": "description",
          "type": "string"
        },
        {
          "indexed": false,
          "internalType": "uint256",
          "name": "reward",
          "type": "uint256"
        }
      ],
      "name": "TaskCreated",
      "type": "event"
    },
    {
      "inputs": [
        {
          "internalType": "uint256",
          "name": "_taskId",
          "type": "uint256"
        },
        {
          "internalType": "string",
          "name": "_result",
          "type": "string"
        }
      ],
      "name": "completeTask",
      "outputs": [],
      "stateMutability": "nonpayable",
      "type": "function"
    },
    {
      "inputs": [],
      "name": "getBalance",
      "outputs": [
        {
          "internalType": "uint256",
          "name": "",
          "type": "uint256"
        }
      ],
      "stateMutability": "view",
      "type": "function"
    },
    {
      "inputs": [
        {
          "internalType": "string",
          "name": "_description",
          "type": "string"
        }
      ],
      "name": "postTask",
      "outputs": [],
      "stateMutability": "payable",
      "type": "function"
    },
    {
      "inputs": [],
      "name": "taskCount",
      "outputs": [
        {
          "internalType": "uint256",
          "name": "",
          "type": "uint256"
        }
      ],
      "stateMutability": "view",
      "type": "function"
    },
    {
      "inputs": [
        {
          "internalType": "uint256",
          "name": "",
          "type": "uint256"
        }
      ],
      "name": "tasks",
      "outputs": [
        {
          "internalType": "uint256",
          "name": "id",
          "type": "uint256"
        },
        {
          "internalType": "string",
          "name": "description",
          "type": "string"
        },
        {
          "internalType": "uint256",
          "name": "reward",
          "type": "uint256"
        },
        {
          "internalType": "bool",
          "name": "isCompleted",
          "type": "bool"
        },
        {
          "internalType": "address",
          "name": "completedBy",
          "type": "address"
        },
        {
          "internalType": "string",
          "name": "result",
          "type": "string"
        }
      ],
      "stateMutability": "view",
      "type": "function"
    }
  ],
  "transactionHash": "0xf47dbb77839a251aeebaaeb6e9bdb2fe2383e8e5b6e2ebaf17435ab5d6a2ab25",
  "args": [],
  "numDeployments": 1,
  "solcInputHash": "a1faa5cec32b213fc9cb06f81a72447b",
  "bytecode": "0x60806040526000600155348015601457600080fd5b5061093a806100246000396000f3fe60806040526004361061004a5760003560e01c806312065fe01461004f57806374aaa760146100715780638d97767214610093578063b6cb58a5146100c5578063c4ca280d146100db575b600080fd5b34801561005b57600080fd5b50475b6040519081526020015b60405180910390f35b34801561007d57600080fd5b5061009161008c366004610600565b6100ee565b005b34801561009f57600080fd5b506100b36100ae366004610647565b61029e565b604051610068969594939291906106a6565b3480156100d157600080fd5b5061005e60015481565b6100916100e93660046106fc565b6103f4565b6000828152602081905260408120805490910361014b5760405162461bcd60e51b8152602060048201526016602482015275547567617320746964616b20646974656d756b616e2160501b60448201526064015b60405180910390fd5b600381015460ff16156101a05760405162461bcd60e51b815260206004820152601860248201527f54756761732073756461682073656c6573616920626f732100000000000000006044820152606401610142565b60038101805433610100026001600160a81b0319909116176001179055600481016101cb83826107c2565b50600281015460405160009133918381818185875af1925050503d8060008114610211576040519150601f19603f3d011682016040523d82523d6000602084013e610216565b606091505b505090508061025d5760405162461bcd60e51b8152602060048201526013602482015272476167616c207472616e736665722075616e6760681b6044820152606401610142565b7f156ab7cd603565d08601ecdc345fe8e8aa82302e835d4df3bff0ec4f005809ed84338560405161029093929190610881565b60405180910390a150505050565b600060208190529081526040902080546001820180549192916102c090610739565b80601f01602080910402602001604051908101604052809291908181526020018280546102ec90610739565b80156103395780601f1061030e57610100808354040283529160200191610339565b820191906000526020600020905b81548152906001019060200180831161031c57829003601f168201915b50505050600283015460038401546004850180549495929460ff831694506101009092046001600160a01b0316929161037190610739565b80601f016020809104026020016040519081016040528092919081815260200182805461039d90610739565b80156103ea5780601f106103bf576101008083540402835291602001916103ea565b820191906000526020600020905b8154815290600101906020018083116103cd57829003601f168201915b5050505050905086565b600034116104445760405162461bcd60e51b815260206004820152601a60248201527f526577617264206861727573206c6562696820646172692030210000000000006044820152606401610142565b60018054906000610454836108b4565b90915550506040805160c0810182526001805480835260208084018681523485870152600060608601819052608086018190528651808401885281815260a087015292835290829052939020825181559251919291908201906104b790826107c2565b5060408201516002820155606082015160038201805460808501516001600160a01b031661010002610100600160a81b0319931515939093166001600160a81b03199091161791909117905560a0820151600482019061051790826107c2565b509050507f146b4b2e55f6b6a4a8ac8239494150cd5f96b163e2d019440f369714f4a31eb86001548234604051610550939291906108db565b60405180910390a150565b634e487b7160e01b600052604160045260246000fd5b600082601f83011261058257600080fd5b813567ffffffffffffffff81111561059c5761059c61055b565b604051601f8201601f19908116603f0116810167ffffffffffffffff811182821017156105cb576105cb61055b565b6040528181528382016020018510156105e357600080fd5b816020850160208301376000918101602001919091529392505050565b6000806040838503121561061357600080fd5b82359150602083013567ffffffffffffffff81111561063157600080fd5b61063d85828601610571565b9150509250929050565b60006020828403121561065957600080fd5b5035919050565b6000815180845260005b818110156106865760208185018101518683018201520161066a565b506000602082860101526020601f19601f83011685010191505092915050565b86815260c0602082015260006106bf60c0830188610660565b6040830187905285151560608401526001600160a01b038516608084015282810360a08401526106ef8185610660565b9998505050505050505050565b60006020828403121561070e57600080fd5b813567ffffffffffffffff81111561072557600080fd5b61073184828501610571565b949350505050565b600181811c9082168061074d57607f821691505b60208210810361076d57634e487b7160e01b600052602260045260246000fd5b50919050565b601f8211156107bd57806000526020600020601f840160051c8101602085101561079a5750805b601f840160051c820191505b818110156107ba57600081556001016107a6565b50505b505050565b815167ffffffffffffffff8111156107dc576107dc61055b565b6107f0816107ea8454610739565b84610773565b6020601f821160018114610824576000831561080c5750848201515b600019600385901b1c1916600184901b1784556107ba565b600084815260208120601f198516915b828110156108545787850151825560209485019460019092019101610834565b50848210156108725786840151600019600387901b60f8161c191681555b50505050600190811b01905550565b8381526001600160a01b03831660208201526060604082018190526000906108ab90830184610660565b95945050505050565b6000600182016108d457634e487b7160e01b600052601160045260246000fd5b5060010190565b8381526060602082015260006108f46060830185610660565b905082604083015294935050505056fea264697066735822122070f32dd72b0585b66d3fbcf3ae581c21c6056f2079355ba2107e439d1e04531864736f6c634300081e0033",
  "devdoc": {
    "kind": "dev",
    "methods": {},
    "version": 1
  },
  "userdoc": {
    "kind": "user",
    "methods": {},
    "version": 1
  },
  "storageLayout": {
    "storage": [
      {
        "astId": 19,
        "contract": "contracts/YourContract.sol:YourContract",
        "label": "tasks",
        "offset": 0,
        "slot": "0",
        "type": "t_mapping(t_uint256,t_struct(Task)14_storage)"
      },
      {
        "astId": 22,
        "contract": "contracts/YourContract.sol:YourContract",
        "label": "taskCount",
        "offset": 0,
        "slot": "1",
        "type": "t_uint256"
      }
    ],
    "types": {
      "t_address": {
        "encoding": "inplace",
        "label": "address",
        "numberOfBytes": "20"
      },
      "t_bool": {
        "encoding": "inplace",
        "label": "bool",
        "numberOfBytes": "1"
      },
      "t_mapping(t_uint256,t_struct(Task)14_storage)": {
        "encoding": "mapping",
        "key": "t_uint256",
        "label": "mapping(uint256 => struct YourContract.Task)",
        "numberOfBytes": "32",
        "value": "t_struct(Task)14_storage"
      },
      "t_string_storage": {
        "encoding": "bytes",
        "label": "string",
        "numberOfBytes": "32"
      },
      "t_struct(Task)14_storage": {
        "encoding": "inplace",
        "label": "struct YourContract.Task",
        "members": [
          {
            "astId": 3,
            "contract": "contracts/YourContract.sol:YourContract",
            "label": "id",
            "offset": 0,
            "slot": "0",
            "type": "t_uint256"
          },
          {
            "astId": 5,
            "contract": "contracts/YourContract.sol:YourContract",
            "label": "description",
            "offset": 0,
            "slot": "1",
            "type": "t_string_storage"
          },
          {
            "astId": 7,
            "contract": "contracts/YourContract.sol:YourContract",
            "label": "reward",
            "offset": 0,
            "slot": "2",
            "type": "t_uint256"
          },
          {
            "astId": 9,
            "contract": "contracts/YourContract.sol:YourContract",
            "label": "isCompleted",
            "offset": 0,
            "slot": "3",
            "type": "t_bool"
          },
          {
            "astId": 11,
            "contract": "contracts/YourContract.sol:YourContract",
            "label": "completedBy",
            "offset": 1,
            "slot": "3",
            "type": "t_address"
          },
          {
            "astId": 13,
            "contract": "contracts/YourContract.sol:YourContract",
            "label": "result",
            "offset": 0,
            "slot": "4",
            "type": "t_string_storage"
          }
        ],
        "numberOfBytes": "160"
      },
      "t_uint256": {
        "encoding": "inplace",
        "label": "uint256",
        "numberOfBytes": "32"
      }
    }
  }
}